{
  "contractName": "Exchange",
  "abi": [
    {
      "inputs": [
        {
          "internalType": "address",
          "name": "_feeAccount",
          "type": "address"
        },
        {
          "internalType": "uint256",
          "name": "_feePercent",
          "type": "uint256"
        }
      ],
      "payable": false,
      "stateMutability": "nonpayable",
      "type": "constructor"
    },
    {
      "anonymous": false,
      "inputs": [
        {
          "indexed": false,
          "internalType": "address",
          "name": "token",
          "type": "address"
        },
        {
          "indexed": false,
          "internalType": "address",
          "name": "user",
          "type": "address"
        },
        {
          "indexed": false,
          "internalType": "uint256",
          "name": "amount",
          "type": "uint256"
        },
        {
          "indexed": false,
          "internalType": "uint256",
          "name": "balance",
          "type": "uint256"
        }
      ],
      "name": "Deposit",
      "type": "event"
    },
    {
      "anonymous": false,
      "inputs": [
        {
          "indexed": false,
          "internalType": "address",
          "name": "token",
          "type": "address"
        },
        {
          "indexed": false,
          "internalType": "address",
          "name": "user",
          "type": "address"
        },
        {
          "indexed": false,
          "internalType": "uint256",
          "name": "amount",
          "type": "uint256"
        },
        {
          "indexed": false,
          "internalType": "uint256",
          "name": "balance",
          "type": "uint256"
        }
      ],
      "name": "Withdraw",
      "type": "event"
    },
    {
      "constant": true,
      "inputs": [],
      "name": "feeAccount",
      "outputs": [
        {
          "internalType": "address",
          "name": "",
          "type": "address"
        }
      ],
      "payable": false,
      "stateMutability": "view",
      "type": "function"
    },
    {
      "constant": true,
      "inputs": [],
      "name": "feePercent",
      "outputs": [
        {
          "internalType": "uint256",
          "name": "",
          "type": "uint256"
        }
      ],
      "payable": false,
      "stateMutability": "view",
      "type": "function"
    },
    {
      "constant": true,
      "inputs": [
        {
          "internalType": "address",
          "name": "",
          "type": "address"
        },
        {
          "internalType": "address",
          "name": "",
          "type": "address"
        }
      ],
      "name": "tokens",
      "outputs": [
        {
          "internalType": "uint256",
          "name": "",
          "type": "uint256"
        }
      ],
      "payable": false,
      "stateMutability": "view",
      "type": "function"
    },
    {
      "constant": false,
      "inputs": [],
      "name": "fallback",
      "outputs": [],
      "payable": false,
      "stateMutability": "nonpayable",
      "type": "function"
    },
    {
      "constant": false,
      "inputs": [],
      "name": "depositEther",
      "outputs": [],
      "payable": true,
      "stateMutability": "payable",
      "type": "function"
    },
    {
      "constant": false,
      "inputs": [
        {
          "internalType": "uint256",
          "name": "_amount",
          "type": "uint256"
        }
      ],
      "name": "withdrawEther",
      "outputs": [],
      "payable": false,
      "stateMutability": "nonpayable",
      "type": "function"
    },
    {
      "constant": false,
      "inputs": [
        {
          "internalType": "address",
          "name": "_token",
          "type": "address"
        },
        {
          "internalType": "uint256",
          "name": "_amount",
          "type": "uint256"
        }
      ],
      "name": "depositToken",
      "outputs": [],
      "payable": false,
      "stateMutability": "nonpayable",
      "type": "function"
    }
  ],
  "bytecode": "0x608060405234801561001057600080fd5b50604051610b7e380380610b7e8339818101604052604081101561003357600080fd5b81019080805190602001909291908051906020019092919050505081600160006101000a81548173ffffffffffffffffffffffffffffffffffffffff021916908373ffffffffffffffffffffffffffffffffffffffff160217905550806000819055505050610ad7806100a76000396000f3fe6080604052600436106100705760003560e01c8063552079dc1161004e578063552079dc1461019057806365e17c9d146101a75780637fd6f15c146101fe57806398ea5fca1461022957610070565b8063338b5dea146100755780633bed33ce146100d0578063508493bc1461010b575b600080fd5b34801561008157600080fd5b506100ce6004803603604081101561009857600080fd5b81019080803573ffffffffffffffffffffffffffffffffffffffff16906020019092919080359060200190929190505050610233565b005b3480156100dc57600080fd5b50610109600480360360208110156100f357600080fd5b81019080803590602001909291905050506105a2565b005b34801561011757600080fd5b5061017a6004803603604081101561012e57600080fd5b81019080803573ffffffffffffffffffffffffffffffffffffffff169060200190929190803573ffffffffffffffffffffffffffffffffffffffff1690602001909291905050506107d8565b6040518082815260200191505060405180910390f35b34801561019c57600080fd5b506101a56107fd565b005b3480156101b357600080fd5b506101bc610802565b604051808273ffffffffffffffffffffffffffffffffffffffff1673ffffffffffffffffffffffffffffffffffffffff16815260200191505060405180910390f35b34801561020a57600080fd5b50610213610828565b6040518082815260200191505060405180910390f35b61023161082e565b005b600073ffffffffffffffffffffffffffffffffffffffff168273ffffffffffffffffffffffffffffffffffffffff16141561026d57600080fd5b8173ffffffffffffffffffffffffffffffffffffffff166323b872dd3330846040518463ffffffff1660e01b8152600401808473ffffffffffffffffffffffffffffffffffffffff1673ffffffffffffffffffffffffffffffffffffffff1681526020018373ffffffffffffffffffffffffffffffffffffffff1673ffffffffffffffffffffffffffffffffffffffff1681526020018281526020019350505050602060405180830381600087803b15801561032857600080fd5b505af115801561033c573d6000803e3d6000fd5b505050506040513d602081101561035257600080fd5b810190808051906020019092919050505061036c57600080fd5b6103fb81600260008573ffffffffffffffffffffffffffffffffffffffff1673ffffffffffffffffffffffffffffffffffffffff16815260200190815260200160002060003373ffffffffffffffffffffffffffffffffffffffff1673ffffffffffffffffffffffffffffffffffffffff16815260200190815260200160002054610a6390919063ffffffff16565b600260008473ffffffffffffffffffffffffffffffffffffffff1673ffffffffffffffffffffffffffffffffffffffff16815260200190815260200160002060003373ffffffffffffffffffffffffffffffffffffffff1673ffffffffffffffffffffffffffffffffffffffff168152602001908152602001600020819055507fdcbc1c05240f31ff3ad067ef1ee35ce4997762752e3a095284754544f4c709d7823383600260008773ffffffffffffffffffffffffffffffffffffffff1673ffffffffffffffffffffffffffffffffffffffff16815260200190815260200160002060003373ffffffffffffffffffffffffffffffffffffffff1673ffffffffffffffffffffffffffffffffffffffff16815260200190815260200160002054604051808573ffffffffffffffffffffffffffffffffffffffff1673ffffffffffffffffffffffffffffffffffffffff1681526020018473ffffffffffffffffffffffffffffffffffffffff1673ffffffffffffffffffffffffffffffffffffffff16815260200183815260200182815260200194505050505060405180910390a15050565b61063181600260008073ffffffffffffffffffffffffffffffffffffffff1673ffffffffffffffffffffffffffffffffffffffff16815260200190815260200160002060003373ffffffffffffffffffffffffffffffffffffffff1673ffffffffffffffffffffffffffffffffffffffff16815260200190815260200160002054610a8290919063ffffffff16565b600260008073ffffffffffffffffffffffffffffffffffffffff1673ffffffffffffffffffffffffffffffffffffffff16815260200190815260200160002060003373ffffffffffffffffffffffffffffffffffffffff1673ffffffffffffffffffffffffffffffffffffffff168152602001908152602001600020819055507ff341246adaac6f497bc2a656f546ab9e182111d630394f0c57c710a59a2cb56760003383600260008073ffffffffffffffffffffffffffffffffffffffff1673ffffffffffffffffffffffffffffffffffffffff16815260200190815260200160002060003373ffffffffffffffffffffffffffffffffffffffff1673ffffffffffffffffffffffffffffffffffffffff16815260200190815260200160002054604051808573ffffffffffffffffffffffffffffffffffffffff1673ffffffffffffffffffffffffffffffffffffffff1681526020018473ffffffffffffffffffffffffffffffffffffffff1673ffffffffffffffffffffffffffffffffffffffff16815260200183815260200182815260200194505050505060405180910390a150565b6002602052816000526040600020602052806000526040600020600091509150505481565b600080fd5b600160009054906101000a900473ffffffffffffffffffffffffffffffffffffffff1681565b60005481565b6108bd34600260008073ffffffffffffffffffffffffffffffffffffffff1673ffffffffffffffffffffffffffffffffffffffff16815260200190815260200160002060003373ffffffffffffffffffffffffffffffffffffffff1673ffffffffffffffffffffffffffffffffffffffff16815260200190815260200160002054610a6390919063ffffffff16565b600260008073ffffffffffffffffffffffffffffffffffffffff1673ffffffffffffffffffffffffffffffffffffffff16815260200190815260200160002060003373ffffffffffffffffffffffffffffffffffffffff1673ffffffffffffffffffffffffffffffffffffffff168152602001908152602001600020819055507fdcbc1c05240f31ff3ad067ef1ee35ce4997762752e3a095284754544f4c709d760003334600260008073ffffffffffffffffffffffffffffffffffffffff1673ffffffffffffffffffffffffffffffffffffffff16815260200190815260200160002060003373ffffffffffffffffffffffffffffffffffffffff1673ffffffffffffffffffffffffffffffffffffffff16815260200190815260200160002054604051808573ffffffffffffffffffffffffffffffffffffffff1673ffffffffffffffffffffffffffffffffffffffff1681526020018473ffffffffffffffffffffffffffffffffffffffff1673ffffffffffffffffffffffffffffffffffffffff16815260200183815260200182815260200194505050505060405180910390a1565b600080828401905083811015610a7857600080fd5b8091505092915050565b600082821115610a9157600080fd5b60008284039050809150509291505056fea265627a7a72315820b71342365e77cc17cd635b2d5108681aba1fe7f3c777167e9a543302b1325bd464736f6c63430005100032",
  "source": "// SPDX-License-Identifier: MIT\r\n\r\npragma solidity >=0.5.0 <0.9.0;\r\nimport \"./Token.sol\";\r\nimport \"openzeppelin-solidity/contracts/math/SafeMath.sol\";\r\n\r\n//Will deposit & withdraw\r\n//Manage Orders: Make & Cancel\r\n//Handle Trades: Charge fees\r\n\r\n// TODO:\r\n// [x] Set the fee account\r\n// [x] Deposit Ether\r\n// [ ] Withdraw Ether\r\n// [x] Deposit tokens\r\n// [ ] Withdraw tokens\r\n// [ ] Check balances\r\n// [ ] Make order\r\n// [ ] Cancel order\r\n// [ ] Fill order\r\n// [ ] Charge fees\r\n\r\ncontract Exchange{\r\n    using SafeMath for uint;\r\n    uint256 public feePercent; \r\n    address public feeAccount; //Account to receive tx fees\r\n    address constant ETHER = address(0); //Store Ether tokens in mapping w blank address\r\n    //Mapping for tokens in exchange\r\n    //first address is token address, second is user address and tokens held by user\r\n    mapping(address => mapping(address => uint256)) public tokens;\r\n\r\n    //Set Fee Account\r\n    constructor (address _feeAccount, uint256 _feePercent ) public {\r\n        feeAccount = _feeAccount;\r\n        feePercent = _feePercent;\r\n    }\r\n\r\n    //Events\r\n    event Deposit(address token, address user, uint256 amount, uint256 balance);\r\n    event Withdraw(address token, address user, uint256 amount, uint256 balance);\r\n    //Fallback: reverts if Ether is sent to this contract by mistake\r\n    function fallback() external {        \r\n        revert();\r\n    }\r\n\r\n    //Must have payable modifier because we need this function to accept Ether \r\n    function depositEther() payable public {\r\n        //Add amount to users balance.\r\n        tokens[ETHER][msg.sender] = tokens[ETHER][msg.sender].add(msg.value);\r\n\r\n        //Emit event\r\n        emit Deposit(ETHER, msg.sender,msg.value,tokens[ETHER][msg.sender]);   \r\n    }\r\n\r\n    function withdrawEther(uint _amount) public {\r\n        tokens[ETHER][msg.sender] = tokens[ETHER][msg.sender].sub(_amount);\r\n        emit Withdraw(ETHER,msg.sender,_amount,tokens[ETHER][msg.sender]);\r\n    } \r\n\r\n    function depositToken(address _token, uint _amount) public {\r\n        //Dont Allow Ether Deposit\r\n        require(_token !=ETHER);\r\n\r\n        //Our token gets transferred\r\n        require(Token(_token).transferFrom(msg.sender, address(this), _amount));\r\n        \r\n        //Add amount to users balance.\r\n        tokens[_token][msg.sender] = tokens[_token][msg.sender].add(_amount);\r\n\r\n        //Emit event\r\n        emit Deposit(_token, msg.sender,_amount,tokens[_token][msg.sender]);\r\n    }\r\n\r\n}",
  "sourcePath": "/mnt/c/Users/ Matt/source/repos/Blockchain Dev Bootcamp/blockchain-dev-bootcamp/src/contracts/Exchange.sol",
  "compiler": {
    "name": "solc",
    "version": "0.5.16+commit.9c3226ce.Emscripten.clang"
  },
  "schemaVersion": "3.4.5",
  "updatedAt": "2022-03-02T22:45:53.522Z",
  "devdoc": {
    "methods": {}
  },
  "userdoc": {
    "methods": {}
  }
}