{
  "contractName": "Exchange",
  "abi": [
    {
      "inputs": [
        {
          "internalType": "address",
          "name": "_feeAccount",
          "type": "address"
        },
        {
          "internalType": "uint256",
          "name": "_feePercent",
          "type": "uint256"
        }
      ],
      "payable": false,
      "stateMutability": "nonpayable",
      "type": "constructor"
    },
    {
      "anonymous": false,
      "inputs": [
        {
          "indexed": false,
          "internalType": "uint256",
          "name": "id",
          "type": "uint256"
        },
        {
          "indexed": false,
          "internalType": "address",
          "name": "user",
          "type": "address"
        },
        {
          "indexed": false,
          "internalType": "address",
          "name": "tokenGet",
          "type": "address"
        },
        {
          "indexed": false,
          "internalType": "uint256",
          "name": "amountGet",
          "type": "uint256"
        },
        {
          "indexed": false,
          "internalType": "address",
          "name": "tokenGive",
          "type": "address"
        },
        {
          "indexed": false,
          "internalType": "uint256",
          "name": "amountGive",
          "type": "uint256"
        },
        {
          "indexed": false,
          "internalType": "uint256",
          "name": "timestamp",
          "type": "uint256"
        }
      ],
      "name": "Cancel",
      "type": "event"
    },
    {
      "anonymous": false,
      "inputs": [
        {
          "indexed": false,
          "internalType": "address",
          "name": "token",
          "type": "address"
        },
        {
          "indexed": false,
          "internalType": "address",
          "name": "user",
          "type": "address"
        },
        {
          "indexed": false,
          "internalType": "uint256",
          "name": "amount",
          "type": "uint256"
        },
        {
          "indexed": false,
          "internalType": "uint256",
          "name": "balance",
          "type": "uint256"
        }
      ],
      "name": "Deposit",
      "type": "event"
    },
    {
      "anonymous": false,
      "inputs": [
        {
          "indexed": false,
          "internalType": "uint256",
          "name": "id",
          "type": "uint256"
        },
        {
          "indexed": false,
          "internalType": "address",
          "name": "user",
          "type": "address"
        },
        {
          "indexed": false,
          "internalType": "address",
          "name": "tokenGet",
          "type": "address"
        },
        {
          "indexed": false,
          "internalType": "uint256",
          "name": "amountGet",
          "type": "uint256"
        },
        {
          "indexed": false,
          "internalType": "address",
          "name": "tokenGive",
          "type": "address"
        },
        {
          "indexed": false,
          "internalType": "uint256",
          "name": "amountGive",
          "type": "uint256"
        },
        {
          "indexed": false,
          "internalType": "uint256",
          "name": "timestamp",
          "type": "uint256"
        }
      ],
      "name": "Order",
      "type": "event"
    },
    {
      "anonymous": false,
      "inputs": [
        {
          "indexed": false,
          "internalType": "uint256",
          "name": "id",
          "type": "uint256"
        },
        {
          "indexed": false,
          "internalType": "address",
          "name": "user",
          "type": "address"
        },
        {
          "indexed": false,
          "internalType": "address",
          "name": "tokenGet",
          "type": "address"
        },
        {
          "indexed": false,
          "internalType": "uint256",
          "name": "amountGet",
          "type": "uint256"
        },
        {
          "indexed": false,
          "internalType": "address",
          "name": "tokenGive",
          "type": "address"
        },
        {
          "indexed": false,
          "internalType": "uint256",
          "name": "amountGive",
          "type": "uint256"
        },
        {
          "indexed": false,
          "internalType": "address",
          "name": "userFill",
          "type": "address"
        },
        {
          "indexed": false,
          "internalType": "uint256",
          "name": "timestamp",
          "type": "uint256"
        }
      ],
      "name": "Trade",
      "type": "event"
    },
    {
      "anonymous": false,
      "inputs": [
        {
          "indexed": false,
          "internalType": "address",
          "name": "token",
          "type": "address"
        },
        {
          "indexed": false,
          "internalType": "address",
          "name": "user",
          "type": "address"
        },
        {
          "indexed": false,
          "internalType": "uint256",
          "name": "amount",
          "type": "uint256"
        },
        {
          "indexed": false,
          "internalType": "uint256",
          "name": "balance",
          "type": "uint256"
        }
      ],
      "name": "Withdraw",
      "type": "event"
    },
    {
      "constant": true,
      "inputs": [],
      "name": "feeAccount",
      "outputs": [
        {
          "internalType": "address",
          "name": "",
          "type": "address"
        }
      ],
      "payable": false,
      "stateMutability": "view",
      "type": "function"
    },
    {
      "constant": true,
      "inputs": [],
      "name": "feePercent",
      "outputs": [
        {
          "internalType": "uint256",
          "name": "",
          "type": "uint256"
        }
      ],
      "payable": false,
      "stateMutability": "view",
      "type": "function"
    },
    {
      "constant": true,
      "inputs": [
        {
          "internalType": "uint256",
          "name": "",
          "type": "uint256"
        }
      ],
      "name": "orderCancelled",
      "outputs": [
        {
          "internalType": "bool",
          "name": "",
          "type": "bool"
        }
      ],
      "payable": false,
      "stateMutability": "view",
      "type": "function"
    },
    {
      "constant": true,
      "inputs": [],
      "name": "orderCount",
      "outputs": [
        {
          "internalType": "uint256",
          "name": "",
          "type": "uint256"
        }
      ],
      "payable": false,
      "stateMutability": "view",
      "type": "function"
    },
    {
      "constant": true,
      "inputs": [
        {
          "internalType": "uint256",
          "name": "",
          "type": "uint256"
        }
      ],
      "name": "orderFilled",
      "outputs": [
        {
          "internalType": "bool",
          "name": "",
          "type": "bool"
        }
      ],
      "payable": false,
      "stateMutability": "view",
      "type": "function"
    },
    {
      "constant": true,
      "inputs": [
        {
          "internalType": "uint256",
          "name": "",
          "type": "uint256"
        }
      ],
      "name": "orders",
      "outputs": [
        {
          "internalType": "uint256",
          "name": "id",
          "type": "uint256"
        },
        {
          "internalType": "address",
          "name": "user",
          "type": "address"
        },
        {
          "internalType": "address",
          "name": "tokenGet",
          "type": "address"
        },
        {
          "internalType": "uint256",
          "name": "amountGet",
          "type": "uint256"
        },
        {
          "internalType": "address",
          "name": "tokenGive",
          "type": "address"
        },
        {
          "internalType": "uint256",
          "name": "amountGive",
          "type": "uint256"
        },
        {
          "internalType": "uint256",
          "name": "timestamp",
          "type": "uint256"
        }
      ],
      "payable": false,
      "stateMutability": "view",
      "type": "function"
    },
    {
      "constant": true,
      "inputs": [
        {
          "internalType": "address",
          "name": "",
          "type": "address"
        },
        {
          "internalType": "address",
          "name": "",
          "type": "address"
        }
      ],
      "name": "tokens",
      "outputs": [
        {
          "internalType": "uint256",
          "name": "",
          "type": "uint256"
        }
      ],
      "payable": false,
      "stateMutability": "view",
      "type": "function"
    },
    {
      "constant": true,
      "inputs": [],
      "name": "fallback",
      "outputs": [],
      "payable": false,
      "stateMutability": "pure",
      "type": "function"
    },
    {
      "constant": false,
      "inputs": [],
      "name": "depositEther",
      "outputs": [],
      "payable": true,
      "stateMutability": "payable",
      "type": "function"
    },
    {
      "constant": false,
      "inputs": [
        {
          "internalType": "uint256",
          "name": "_amount",
          "type": "uint256"
        }
      ],
      "name": "withdrawEther",
      "outputs": [],
      "payable": false,
      "stateMutability": "nonpayable",
      "type": "function"
    },
    {
      "constant": false,
      "inputs": [
        {
          "internalType": "address",
          "name": "_token",
          "type": "address"
        },
        {
          "internalType": "uint256",
          "name": "_amount",
          "type": "uint256"
        }
      ],
      "name": "depositToken",
      "outputs": [],
      "payable": false,
      "stateMutability": "nonpayable",
      "type": "function"
    },
    {
      "constant": false,
      "inputs": [
        {
          "internalType": "address",
          "name": "_token",
          "type": "address"
        },
        {
          "internalType": "uint256",
          "name": "_amount",
          "type": "uint256"
        }
      ],
      "name": "withdrawToken",
      "outputs": [],
      "payable": false,
      "stateMutability": "nonpayable",
      "type": "function"
    },
    {
      "constant": true,
      "inputs": [
        {
          "internalType": "address",
          "name": "_token",
          "type": "address"
        },
        {
          "internalType": "address",
          "name": "_user",
          "type": "address"
        }
      ],
      "name": "balanceOf",
      "outputs": [
        {
          "internalType": "uint256",
          "name": "",
          "type": "uint256"
        }
      ],
      "payable": false,
      "stateMutability": "view",
      "type": "function"
    },
    {
      "constant": false,
      "inputs": [
        {
          "internalType": "address",
          "name": "_tokenGet",
          "type": "address"
        },
        {
          "internalType": "uint256",
          "name": "_amountGet",
          "type": "uint256"
        },
        {
          "internalType": "address",
          "name": "_tokenGive",
          "type": "address"
        },
        {
          "internalType": "uint256",
          "name": "_amountGive",
          "type": "uint256"
        }
      ],
      "name": "makeOrder",
      "outputs": [],
      "payable": false,
      "stateMutability": "nonpayable",
      "type": "function"
    },
    {
      "constant": false,
      "inputs": [
        {
          "internalType": "uint256",
          "name": "_id",
          "type": "uint256"
        }
      ],
      "name": "cancelOrder",
      "outputs": [],
      "payable": false,
      "stateMutability": "nonpayable",
      "type": "function"
    },
    {
      "constant": false,
      "inputs": [
        {
          "internalType": "uint256",
          "name": "_id",
          "type": "uint256"
        }
      ],
      "name": "fillOrder",
      "outputs": [],
      "payable": false,
      "stateMutability": "nonpayable",
      "type": "function"
    }
  ],
  "bytecode": "0x608060405234801561001057600080fd5b506040516122d63803806122d68339818101604052604081101561003357600080fd5b81019080805190602001909291908051906020019092919050505081600160006101000a81548173ffffffffffffffffffffffffffffffffffffffff021916908373ffffffffffffffffffffffffffffffffffffffff16021790555080600081905550505061222f806100a76000396000f3fe6080604052600436106100f35760003560e01c806367b830ad1161008a5780639e281a98116100595780639e281a981461042f578063a85c38ef1461048a578063e9c1896614610587578063f7888aec146105da576100f3565b806367b830ad1461033a5780637fd6f15c1461037557806398ea5fca146103a05780639a5c90aa146103aa576100f3565b8063508493bc116100c6578063508493bc1461020c578063514fcac714610291578063552079dc146102cc57806365e17c9d146102e3576100f3565b80632453ffa8146100f8578063338b5dea146101235780633bed33ce1461017e5780634a93e0da146101b9575b600080fd5b34801561010457600080fd5b5061010d61065f565b6040518082815260200191505060405180910390f35b34801561012f57600080fd5b5061017c6004803603604081101561014657600080fd5b81019080803573ffffffffffffffffffffffffffffffffffffffff16906020019092919080359060200190929190505050610665565b005b34801561018a57600080fd5b506101b7600480360360208110156101a157600080fd5b81019080803590602001909291905050506109d4565b005b3480156101c557600080fd5b506101f2600480360360208110156101dc57600080fd5b8101908080359060200190929190505050610cda565b604051808215151515815260200191505060405180910390f35b34801561021857600080fd5b5061027b6004803603604081101561022f57600080fd5b81019080803573ffffffffffffffffffffffffffffffffffffffff169060200190929190803573ffffffffffffffffffffffffffffffffffffffff169060200190929190505050610cfa565b6040518082815260200191505060405180910390f35b34801561029d57600080fd5b506102ca600480360360208110156102b457600080fd5b8101908080359060200190929190505050610d1f565b005b3480156102d857600080fd5b506102e1610f15565b005b3480156102ef57600080fd5b506102f8610f1a565b604051808273ffffffffffffffffffffffffffffffffffffffff1673ffffffffffffffffffffffffffffffffffffffff16815260200191505060405180910390f35b34801561034657600080fd5b506103736004803603602081101561035d57600080fd5b8101908080359060200190929190505050610f40565b005b34801561038157600080fd5b5061038a611082565b6040518082815260200191505060405180910390f35b6103a8611088565b005b3480156103b657600080fd5b5061042d600480360360808110156103cd57600080fd5b81019080803573ffffffffffffffffffffffffffffffffffffffff16906020019092919080359060200190929190803573ffffffffffffffffffffffffffffffffffffffff169060200190929190803590602001909291905050506112bd565b005b34801561043b57600080fd5b506104886004803603604081101561045257600080fd5b81019080803573ffffffffffffffffffffffffffffffffffffffff16906020019092919080359060200190929190505050611558565b005b34801561049657600080fd5b506104c3600480360360208110156104ad57600080fd5b810190808035906020019092919050505061191d565b604051808881526020018773ffffffffffffffffffffffffffffffffffffffff1673ffffffffffffffffffffffffffffffffffffffff1681526020018673ffffffffffffffffffffffffffffffffffffffff1673ffffffffffffffffffffffffffffffffffffffff1681526020018581526020018473ffffffffffffffffffffffffffffffffffffffff1673ffffffffffffffffffffffffffffffffffffffff16815260200183815260200182815260200197505050505050505060405180910390f35b34801561059357600080fd5b506105c0600480360360208110156105aa57600080fd5b81019080803590602001909291905050506119bf565b604051808215151515815260200191505060405180910390f35b3480156105e657600080fd5b50610649600480360360408110156105fd57600080fd5b81019080803573ffffffffffffffffffffffffffffffffffffffff169060200190929190803573ffffffffffffffffffffffffffffffffffffffff1690602001909291905050506119df565b6040518082815260200191505060405180910390f35b60025481565b600073ffffffffffffffffffffffffffffffffffffffff168273ffffffffffffffffffffffffffffffffffffffff16141561069f57600080fd5b8173ffffffffffffffffffffffffffffffffffffffff166323b872dd3330846040518463ffffffff1660e01b8152600401808473ffffffffffffffffffffffffffffffffffffffff1673ffffffffffffffffffffffffffffffffffffffff1681526020018373ffffffffffffffffffffffffffffffffffffffff1673ffffffffffffffffffffffffffffffffffffffff1681526020018281526020019350505050602060405180830381600087803b15801561075a57600080fd5b505af115801561076e573d6000803e3d6000fd5b505050506040513d602081101561078457600080fd5b810190808051906020019092919050505061079e57600080fd5b61082d81600360008573ffffffffffffffffffffffffffffffffffffffff1673ffffffffffffffffffffffffffffffffffffffff16815260200190815260200160002060003373ffffffffffffffffffffffffffffffffffffffff1673ffffffffffffffffffffffffffffffffffffffff16815260200190815260200160002054611a6690919063ffffffff16565b600360008473ffffffffffffffffffffffffffffffffffffffff1673ffffffffffffffffffffffffffffffffffffffff16815260200190815260200160002060003373ffffffffffffffffffffffffffffffffffffffff1673ffffffffffffffffffffffffffffffffffffffff168152602001908152602001600020819055507fdcbc1c05240f31ff3ad067ef1ee35ce4997762752e3a095284754544f4c709d7823383600360008773ffffffffffffffffffffffffffffffffffffffff1673ffffffffffffffffffffffffffffffffffffffff16815260200190815260200160002060003373ffffffffffffffffffffffffffffffffffffffff1673ffffffffffffffffffffffffffffffffffffffff16815260200190815260200160002054604051808573ffffffffffffffffffffffffffffffffffffffff1673ffffffffffffffffffffffffffffffffffffffff1681526020018473ffffffffffffffffffffffffffffffffffffffff1673ffffffffffffffffffffffffffffffffffffffff16815260200183815260200182815260200194505050505060405180910390a15050565b80600360008073ffffffffffffffffffffffffffffffffffffffff1673ffffffffffffffffffffffffffffffffffffffff16815260200190815260200160002060003373ffffffffffffffffffffffffffffffffffffffff1673ffffffffffffffffffffffffffffffffffffffff168152602001908152602001600020541015610a5d57600080fd5b610aec81600360008073ffffffffffffffffffffffffffffffffffffffff1673ffffffffffffffffffffffffffffffffffffffff16815260200190815260200160002060003373ffffffffffffffffffffffffffffffffffffffff1673ffffffffffffffffffffffffffffffffffffffff16815260200190815260200160002054611a8590919063ffffffff16565b600360008073ffffffffffffffffffffffffffffffffffffffff1673ffffffffffffffffffffffffffffffffffffffff16815260200190815260200160002060003373ffffffffffffffffffffffffffffffffffffffff1673ffffffffffffffffffffffffffffffffffffffff168152602001908152602001600020819055503373ffffffffffffffffffffffffffffffffffffffff166108fc829081150290604051600060405180830381858888f19350505050158015610bb2573d6000803e3d6000fd5b507ff341246adaac6f497bc2a656f546ab9e182111d630394f0c57c710a59a2cb56760003383600360008073ffffffffffffffffffffffffffffffffffffffff1673ffffffffffffffffffffffffffffffffffffffff16815260200190815260200160002060003373ffffffffffffffffffffffffffffffffffffffff1673ffffffffffffffffffffffffffffffffffffffff16815260200190815260200160002054604051808573ffffffffffffffffffffffffffffffffffffffff1673ffffffffffffffffffffffffffffffffffffffff1681526020018473ffffffffffffffffffffffffffffffffffffffff1673ffffffffffffffffffffffffffffffffffffffff16815260200183815260200182815260200194505050505060405180910390a150565b60066020528060005260406000206000915054906101000a900460ff1681565b6003602052816000526040600020602052806000526040600020600091509150505481565b60006004600083815260200190815260200160002090503373ffffffffffffffffffffffffffffffffffffffff168160010160009054906101000a900473ffffffffffffffffffffffffffffffffffffffff1673ffffffffffffffffffffffffffffffffffffffff1614610d9257600080fd5b81816000015414610da257600080fd5b60016005600084815260200190815260200160002060006101000a81548160ff0219169083151502179055507f77de1da0be5f2d3b110d05c6694e5c4ff2d9da7cd23d84353ecf78c7b5acec618160000154338360020160009054906101000a900473ffffffffffffffffffffffffffffffffffffffff1684600301548560040160009054906101000a900473ffffffffffffffffffffffffffffffffffffffff1686600501548760060154604051808881526020018773ffffffffffffffffffffffffffffffffffffffff1673ffffffffffffffffffffffffffffffffffffffff1681526020018673ffffffffffffffffffffffffffffffffffffffff1673ffffffffffffffffffffffffffffffffffffffff1681526020018581526020018473ffffffffffffffffffffffffffffffffffffffff1673ffffffffffffffffffffffffffffffffffffffff16815260200183815260200182815260200197505050505050505060405180910390a15050565b600080fd5b600160009054906101000a900473ffffffffffffffffffffffffffffffffffffffff1681565b600081118015610f5257506002548111155b610f5b57600080fd5b6006600082815260200190815260200160002060009054906101000a900460ff1615610f8657600080fd5b6005600082815260200190815260200160002060009054906101000a900460ff1615610fb157600080fd5b600060046000838152602001908152602001600020905061104e81600001548260010160009054906101000a900473ffffffffffffffffffffffffffffffffffffffff168360020160009054906101000a900473ffffffffffffffffffffffffffffffffffffffff1684600301548560040160009054906101000a900473ffffffffffffffffffffffffffffffffffffffff168660050154611aa5565b6001600660008360000154815260200190815260200160002060006101000a81548160ff0219169083151502179055505050565b60005481565b61111734600360008073ffffffffffffffffffffffffffffffffffffffff1673ffffffffffffffffffffffffffffffffffffffff16815260200190815260200160002060003373ffffffffffffffffffffffffffffffffffffffff1673ffffffffffffffffffffffffffffffffffffffff16815260200190815260200160002054611a6690919063ffffffff16565b600360008073ffffffffffffffffffffffffffffffffffffffff1673ffffffffffffffffffffffffffffffffffffffff16815260200190815260200160002060003373ffffffffffffffffffffffffffffffffffffffff1673ffffffffffffffffffffffffffffffffffffffff168152602001908152602001600020819055507fdcbc1c05240f31ff3ad067ef1ee35ce4997762752e3a095284754544f4c709d760003334600360008073ffffffffffffffffffffffffffffffffffffffff1673ffffffffffffffffffffffffffffffffffffffff16815260200190815260200160002060003373ffffffffffffffffffffffffffffffffffffffff1673ffffffffffffffffffffffffffffffffffffffff16815260200190815260200160002054604051808573ffffffffffffffffffffffffffffffffffffffff1673ffffffffffffffffffffffffffffffffffffffff1681526020018473ffffffffffffffffffffffffffffffffffffffff1673ffffffffffffffffffffffffffffffffffffffff16815260200183815260200182815260200194505050505060405180910390a1565b6112d36001600254611a6690919063ffffffff16565b6002819055506040518060e0016040528060025481526020013373ffffffffffffffffffffffffffffffffffffffff1681526020018573ffffffffffffffffffffffffffffffffffffffff1681526020018481526020018373ffffffffffffffffffffffffffffffffffffffff168152602001828152602001428152506004600060025481526020019081526020016000206000820151816000015560208201518160010160006101000a81548173ffffffffffffffffffffffffffffffffffffffff021916908373ffffffffffffffffffffffffffffffffffffffff16021790555060408201518160020160006101000a81548173ffffffffffffffffffffffffffffffffffffffff021916908373ffffffffffffffffffffffffffffffffffffffff1602179055506060820151816003015560808201518160040160006101000a81548173ffffffffffffffffffffffffffffffffffffffff021916908373ffffffffffffffffffffffffffffffffffffffff16021790555060a0820151816005015560c082015181600601559050507f9d33853d43e3607b4cc01fdc78338ff2dca6fef7db9232dae6d3eb55fbc3b109600254338686868642604051808881526020018773ffffffffffffffffffffffffffffffffffffffff1673ffffffffffffffffffffffffffffffffffffffff1681526020018673ffffffffffffffffffffffffffffffffffffffff1673ffffffffffffffffffffffffffffffffffffffff1681526020018581526020018473ffffffffffffffffffffffffffffffffffffffff1673ffffffffffffffffffffffffffffffffffffffff16815260200183815260200182815260200197505050505050505060405180910390a150505050565b600073ffffffffffffffffffffffffffffffffffffffff168273ffffffffffffffffffffffffffffffffffffffff16141561159257600080fd5b80600360008473ffffffffffffffffffffffffffffffffffffffff1673ffffffffffffffffffffffffffffffffffffffff16815260200190815260200160002060003373ffffffffffffffffffffffffffffffffffffffff1673ffffffffffffffffffffffffffffffffffffffff16815260200190815260200160002054101561161b57600080fd5b6116aa81600360008573ffffffffffffffffffffffffffffffffffffffff1673ffffffffffffffffffffffffffffffffffffffff16815260200190815260200160002060003373ffffffffffffffffffffffffffffffffffffffff1673ffffffffffffffffffffffffffffffffffffffff16815260200190815260200160002054611a8590919063ffffffff16565b600360008473ffffffffffffffffffffffffffffffffffffffff1673ffffffffffffffffffffffffffffffffffffffff16815260200190815260200160002060003373ffffffffffffffffffffffffffffffffffffffff1673ffffffffffffffffffffffffffffffffffffffff168152602001908152602001600020819055508173ffffffffffffffffffffffffffffffffffffffff1663a9059cbb33836040518363ffffffff1660e01b8152600401808373ffffffffffffffffffffffffffffffffffffffff1673ffffffffffffffffffffffffffffffffffffffff16815260200182815260200192505050602060405180830381600087803b1580156117b157600080fd5b505af11580156117c5573d6000803e3d6000fd5b505050506040513d60208110156117db57600080fd5b81019080805190602001909291905050506117f557600080fd5b7ff341246adaac6f497bc2a656f546ab9e182111d630394f0c57c710a59a2cb56760003383600360008073ffffffffffffffffffffffffffffffffffffffff1673ffffffffffffffffffffffffffffffffffffffff16815260200190815260200160002060003373ffffffffffffffffffffffffffffffffffffffff1673ffffffffffffffffffffffffffffffffffffffff16815260200190815260200160002054604051808573ffffffffffffffffffffffffffffffffffffffff1673ffffffffffffffffffffffffffffffffffffffff1681526020018473ffffffffffffffffffffffffffffffffffffffff1673ffffffffffffffffffffffffffffffffffffffff16815260200183815260200182815260200194505050505060405180910390a15050565b60046020528060005260406000206000915090508060000154908060010160009054906101000a900473ffffffffffffffffffffffffffffffffffffffff16908060020160009054906101000a900473ffffffffffffffffffffffffffffffffffffffff16908060030154908060040160009054906101000a900473ffffffffffffffffffffffffffffffffffffffff16908060050154908060060154905087565b60056020528060005260406000206000915054906101000a900460ff1681565b6000600360008473ffffffffffffffffffffffffffffffffffffffff1673ffffffffffffffffffffffffffffffffffffffff16815260200190815260200160002060008373ffffffffffffffffffffffffffffffffffffffff1673ffffffffffffffffffffffffffffffffffffffff16815260200190815260200160002054905092915050565b600080828401905083811015611a7b57600080fd5b8091505092915050565b600082821115611a9457600080fd5b600082840390508091505092915050565b6000611acf6064611ac16000548561219a90919063ffffffff16565b6121d490919063ffffffff16565b9050611b72611ae78286611a6690919063ffffffff16565b600360008873ffffffffffffffffffffffffffffffffffffffff1673ffffffffffffffffffffffffffffffffffffffff16815260200190815260200160002060003373ffffffffffffffffffffffffffffffffffffffff1673ffffffffffffffffffffffffffffffffffffffff16815260200190815260200160002054611a8590919063ffffffff16565b600360008773ffffffffffffffffffffffffffffffffffffffff1673ffffffffffffffffffffffffffffffffffffffff16815260200190815260200160002060003373ffffffffffffffffffffffffffffffffffffffff1673ffffffffffffffffffffffffffffffffffffffff16815260200190815260200160002081905550611c8184600360008873ffffffffffffffffffffffffffffffffffffffff1673ffffffffffffffffffffffffffffffffffffffff16815260200190815260200160002060008973ffffffffffffffffffffffffffffffffffffffff1673ffffffffffffffffffffffffffffffffffffffff16815260200190815260200160002054611a6690919063ffffffff16565b600360008773ffffffffffffffffffffffffffffffffffffffff1673ffffffffffffffffffffffffffffffffffffffff16815260200190815260200160002060008873ffffffffffffffffffffffffffffffffffffffff1673ffffffffffffffffffffffffffffffffffffffff16815260200190815260200160002081905550611db281600360008873ffffffffffffffffffffffffffffffffffffffff1673ffffffffffffffffffffffffffffffffffffffff1681526020019081526020016000206000600160009054906101000a900473ffffffffffffffffffffffffffffffffffffffff1673ffffffffffffffffffffffffffffffffffffffff1673ffffffffffffffffffffffffffffffffffffffff16815260200190815260200160002054611a6690919063ffffffff16565b600360008773ffffffffffffffffffffffffffffffffffffffff1673ffffffffffffffffffffffffffffffffffffffff1681526020019081526020016000206000600160009054906101000a900473ffffffffffffffffffffffffffffffffffffffff1673ffffffffffffffffffffffffffffffffffffffff1673ffffffffffffffffffffffffffffffffffffffff16815260200190815260200160002081905550611ee382600360008673ffffffffffffffffffffffffffffffffffffffff1673ffffffffffffffffffffffffffffffffffffffff16815260200190815260200160002060008973ffffffffffffffffffffffffffffffffffffffff1673ffffffffffffffffffffffffffffffffffffffff16815260200190815260200160002054611a8590919063ffffffff16565b600360008573ffffffffffffffffffffffffffffffffffffffff1673ffffffffffffffffffffffffffffffffffffffff16815260200190815260200160002060008873ffffffffffffffffffffffffffffffffffffffff1673ffffffffffffffffffffffffffffffffffffffff16815260200190815260200160002081905550611ff282600360008673ffffffffffffffffffffffffffffffffffffffff1673ffffffffffffffffffffffffffffffffffffffff16815260200190815260200160002060003373ffffffffffffffffffffffffffffffffffffffff1673ffffffffffffffffffffffffffffffffffffffff16815260200190815260200160002054611a6690919063ffffffff16565b600360008573ffffffffffffffffffffffffffffffffffffffff1673ffffffffffffffffffffffffffffffffffffffff16815260200190815260200160002060003373ffffffffffffffffffffffffffffffffffffffff1673ffffffffffffffffffffffffffffffffffffffff168152602001908152602001600020819055507f0dddf4182dc0fc1a311cb75f049c97403c6b8a99cf6b2229a36e7c526acb3f818787878787873342604051808981526020018873ffffffffffffffffffffffffffffffffffffffff1673ffffffffffffffffffffffffffffffffffffffff1681526020018773ffffffffffffffffffffffffffffffffffffffff1673ffffffffffffffffffffffffffffffffffffffff1681526020018681526020018573ffffffffffffffffffffffffffffffffffffffff1673ffffffffffffffffffffffffffffffffffffffff1681526020018481526020018373ffffffffffffffffffffffffffffffffffffffff1673ffffffffffffffffffffffffffffffffffffffff1681526020018281526020019850505050505050505060405180910390a150505050505050565b6000808314156121ad57600090506121ce565b60008284029050828482816121be57fe5b04146121c957600080fd5b809150505b92915050565b60008082116121e257600080fd5b60008284816121ed57fe5b049050809150509291505056fea265627a7a723158202c7b22155601a09e6f0f7647c6902a8603f4b1eb70ddabe3eac6885d5a8aa4f464736f6c63430005100032",
  "source": "// SPDX-License-Identifier: MIT\r\n\r\npragma solidity >=0.5.0 < 0.9.0;\r\nimport \"./Token.sol\";\r\nimport \"openzeppelin-solidity/contracts/math/SafeMath.sol\";\r\n\r\n//Will deposit & withdraw\r\n//Manage Orders: Make & Cancel\r\n//Handle Trades: Charge fees\r\n\r\n// TODO:\r\n// [x] Set the fee account\r\n// [x] Deposit Ether\r\n// [x] Withdraw Ether\r\n// [x] Deposit tokens\r\n// [x] Withdraw tokens\r\n// [x] Check balances\r\n// [x] Make order\r\n// [x] Cancel order\r\n// [x] Fill order\r\n// [x] Charge fees\r\n\r\ncontract Exchange{\r\n    using SafeMath for uint;\r\n    uint256 public feePercent; \r\n    address public feeAccount; //Account to receive tx fees\r\n    address constant ETHER = address(0); //Store Ether tokens in mapping w blank address\r\n    uint256 public orderCount;\r\n  \r\n    //Mapping for tokens in exchange\r\n    //first address is token address, second is user address and tokens held by user\r\n    mapping(address => mapping(address => uint256)) public tokens;\r\n    \r\n    //Store the orders Id, and each order.\r\n    mapping(uint256 => _Order) public orders;\r\n\r\n    //Store canceled orders\r\n    mapping(uint256 => bool)public orderCancelled;\r\n\r\n    //Store fufilled orders\r\n    mapping(uint256 => bool) public orderFilled;\r\n\r\n    //Set Fee Account\r\n    constructor (address _feeAccount, uint256 _feePercent ) public {\r\n        feeAccount = _feeAccount;\r\n        feePercent = _feePercent;\r\n    }\r\n\r\n    //Events\r\n    event Deposit(address token, address user, uint256 amount, uint256 balance);\r\n    event Withdraw(address token, address user, uint256 amount, uint256 balance);\r\n    event Order(uint256 id,address user,address tokenGet,uint256 amountGet,address tokenGive,uint256 amountGive,uint256 timestamp);\r\n    event Cancel(uint256 id,address user,address tokenGet,uint256 amountGet,address tokenGive,uint256 amountGive,uint256 timestamp);\r\n    event Trade(uint256 id, address user, address tokenGet, uint256 amountGet, address tokenGive, uint256 amountGive, address userFill, uint256 timestamp);\r\n\r\n    //Model the order\r\n    struct _Order{\r\n        uint256 id;\r\n        address user;          //Person who made order\r\n        address tokenGet;      \r\n        uint256 amountGet;\r\n        address tokenGive;\r\n        uint256 amountGive;\r\n        uint256 timestamp;\r\n    }\r\n\r\n    //Fallback: reverts if Ether is sent to this contract by mistake\r\n    function fallback() pure external {        \r\n        revert();\r\n    }\r\n\r\n    //Must have payable modifier because we need this function to accept Ether \r\n    function depositEther() payable public {\r\n        //Add amount to users balance.\r\n        tokens[ETHER][msg.sender] = tokens[ETHER][msg.sender].add(msg.value);\r\n\r\n        //Emit event\r\n        emit Deposit(ETHER, msg.sender,msg.value,tokens[ETHER][msg.sender]);   \r\n    }\r\n\r\n    function withdrawEther(uint _amount) public {\r\n        require(tokens[ETHER][msg.sender]>= _amount);\r\n        tokens[ETHER][msg.sender] = tokens[ETHER][msg.sender].sub(_amount);\r\n\r\n        //Solidity prefered method of sending ETH forwards all gas. \r\n        //(bool success, ) = msg.sender.call{value:_amount}(\"\");\r\n        //For Solidity  0.7+ :( \r\n\r\n        msg.sender.transfer(_amount);\r\n        emit Withdraw(ETHER,msg.sender,_amount,tokens[ETHER][msg.sender]);\r\n    } \r\n\r\n    function depositToken(address _token, uint _amount) public {\r\n        //Dont Allow Ether Deposit\r\n        require(_token !=ETHER);\r\n\r\n        //Our token gets transferred\r\n        require(Token(_token).transferFrom(msg.sender, address(this), _amount));\r\n        \r\n        //Add amount to users balance.\r\n        tokens[_token][msg.sender] = tokens[_token][msg.sender].add(_amount);\r\n\r\n        //Emit event\r\n        emit Deposit(_token, msg.sender,_amount,tokens[_token][msg.sender]);\r\n    }\r\n\r\n    function withdrawToken(address _token, uint256 _amount) public{\r\n        require(_token !=ETHER);\r\n        require(tokens[_token][msg.sender] >= _amount);\r\n        tokens[_token][msg.sender] =   tokens[_token][msg.sender].sub(_amount);\r\n        require(Token(_token).transfer(msg.sender,_amount));\r\n        emit Withdraw(ETHER,msg.sender,_amount,tokens[ETHER][msg.sender]);\r\n    }\r\n\r\n    function balanceOf(address _token, address _user) public view returns (uint256){\r\n        return tokens[_token][_user];\r\n    }\r\n\r\n    //Add order to storage\r\n    //token you want to get, amount in that, token youre giving, amount in that\r\n    function makeOrder(address _tokenGet, uint256 _amountGet, address _tokenGive, uint256 _amountGive) public {\r\n        orderCount = orderCount.add(1);\r\n        orders[orderCount] = _Order(orderCount, msg.sender,_tokenGet, _amountGet, _tokenGive, _amountGive, now);\r\n        emit Order(orderCount, msg.sender,_tokenGet, _amountGet, _tokenGive, _amountGive, now);\r\n    }\r\n\r\n    function cancelOrder(uint256 _id) public{\r\n        _Order storage _order = orders[_id];\r\n        \r\n        //Must by \"my\" order\r\n        require(address(_order.user) == msg.sender);\r\n        \r\n        //Order must exist\r\n        require(_order.id == _id); \r\n        \r\n        orderCancelled[_id] = true;\r\n        emit Cancel(_order.id,msg.sender,_order.tokenGet, _order.amountGet,_order.tokenGive, _order.amountGive,_order.timestamp);\r\n\r\n    }\r\n\r\n    function fillOrder(uint256 _id) public{\r\n        //Make sure we are filling a 'valid' order\r\n        require(_id > 0 && _id <= orderCount);\r\n        //Make sure order hasnt been fufilled\r\n        require(!orderFilled[_id]);\r\n        //Make sure order isnt cancelled;\r\n        require(!orderCancelled[_id]);\r\n\r\n        //Fetch Order\r\n        _Order storage _order = orders[_id];\r\n        \r\n        //Do Trade\r\n        _trade(_order.id,_order.user,_order.tokenGet,_order.amountGet,_order.tokenGive,_order.amountGive);\r\n\r\n        //Mark as filled      \r\n        orderFilled[_order.id] = true;\r\n    }\r\n\r\n    function _trade(uint256 _orderId, address _user, address _tokenGet, uint256 _amountGet, address _tokenGive, uint256 _amountGive) internal{\r\n\r\n        //Amount * 10% = fee\r\n        uint256 _feeAmount = _amountGive.mul(feePercent).div(100);\r\n        \r\n        //Do Trade\r\n        //msg.sender = person filling order, Subtract the amount of the order from Fufiller\r\n        //Calc the fee addition to original amount\r\n        tokens[_tokenGet][msg.sender] =  tokens[_tokenGet][msg.sender].sub(_amountGet.add(_feeAmount));\r\n\r\n        //User is person who created order, Add requested order amount to User.\r\n        tokens[_tokenGet][_user] = tokens[_tokenGet][_user].add(_amountGet);\r\n        \r\n        //Charge Fees\r\n        tokens[_tokenGet][feeAccount] = tokens[_tokenGet][feeAccount].add(_feeAmount);\r\n\r\n        //Subtract the tokens from user that were given in order to create order.\r\n        tokens[_tokenGive][_user] = tokens[_tokenGive][_user].sub(_amountGive);\r\n        \r\n        //Add these tokens to person filling \r\n        tokens[_tokenGive][msg.sender] = tokens[_tokenGive][msg.sender].add(_amountGive);\r\n \r\n        //Emit Trade Event\r\n        emit Trade(_orderId, _user, _tokenGet,_amountGet, _tokenGive, _amountGive, msg.sender,now);\r\n    }\r\n}",
  "sourcePath": "/mnt/c/Users/ Matt/source/repos/Blockchain Dev Bootcamp/blockchain-dev-bootcamp/src/contracts/Exchange.sol",
  "compiler": {
    "name": "solc",
    "version": "0.5.16+commit.9c3226ce.Emscripten.clang"
  },
  "schemaVersion": "3.4.5",
  "updatedAt": "2022-03-08T19:19:14.559Z",
  "networkType": "ethereum",
  "devdoc": {
    "methods": {}
  },
  "userdoc": {
    "methods": {}
  }
}